:100000000C942A000C9447000C9447000C94470071
:100010000C9447000C9447000C9447000C94470044
:100020000C9447000C9447000C9447000C94470034
:100030000C9447000C9447000C9447000C94470024
:100040000C9447000C9447000C9447000C94470014
:100050000C94470011241FBECFE5D8E0DEBFCDBF12
:1000600010E0A0E6B0E0EAEBFAE002C005900D92E5
:10007000A63EB107D9F721E0A6EEB0E001C01D927F
:10008000A534B207E1F70E9442020C945B050C9480
:10009000000082BBA89AA99887EC90E00197F1F73D
:1000A00000C00000A89887EC90E00197F1F700C02D
:1000B00000000895A8988FEC97E00197F1F700C031
:1000C000000088E30E9449009AE19A95F1F700C088
:1000D0008EE00E9449008AE18A95F1F700C081E034
:1000E0000E9449008FE99FE00197F1F700C00000EE
:1000F00086E00E94490008950F931F93CF93DF93EA
:10010000CDB7DEB766970FB6F894DEBF0FBECDBF92
:1001100086E1EAEBF0E0DE01119601900D928A95FE
:10012000E1F70E945A00FE0131968E01025F1F4FD7
:10013000819182BBA99AA89A87EC90E00197F1F788
:1001400000C00000A89887EC90E00197F1F700C08C
:100150000000E017F10761F780EC0E9449009E0162
:10016000295E3F4FF80181918F0182BBA99AA89A1D
:1001700087EC90E00197F1F700C00000A898E7EC49
:10018000F0E03197F1F700C000000217130751F7B4
:1001900066960FB6F894DEBF0FBECDBFDF91CF914C
:1001A0001F910F910895CF93DF93C82F8091E600A0
:1001B0009091E7008031910521F480EC0E94490084
:1001C00052C04F9709F04FC0C3E0D0E02FEF84E357
:1001D0009CE0215080409040E1F700C000000E9468
:1001E0007C002FEF84E39CE0215080409040E1F7B9
:1001F00000C0000081E00E944900219739F70E9469
:100200005A00E6E2F1E0C6E3D1E0819182BBA99A0F
:10021000A89A87EC90E00197F1F700C00000A89839
:1002200087EC90E00197F1F700C00000CE17DF07E0
:1002300061F780EC0E94490026E431E0899182BB9D
:10024000A99AA89A87EC90E00197F1F700C0000006
:10025000A89887EC90E00197F1F700C00000C21762
:10026000D30761F71DC08091E6009091E700FC0183
:10027000EA5DFE4FC08301969093E7008093E6000D
:10028000C2BBA99AA89A87EC90E00197F1F700C049
:100290000000A89887EC90E00197F1F700C00000FB
:1002A000DF91CF910895CF92DF92EF92FF920F935B
:1002B0001F93CF93DF93CDB7DEB766970FB6F89451
:1002C000DEBF0FBECDBF8091E6009091E7000097A2
:1002D00009F458C00CF4B8C00F2EF8EECF2EF0E0A1
:1002E000DF2EF02DE12CF12C0AE010E0D601ED918B
:1002F000FD916D0124E030E0CF01B8010E9433058B
:1003000081309105A9F4BFEF41EE84E0B150404047
:100310008040E1F700C00000AE9A9FEFA9E6B8E187
:100320009150A040B040E1F700C00000AE9816C068
:100330000297A1F44FEF81EE94E04150804090404D
:10034000E1F700C00000AE9AAFEFBDE349E4A15071
:10035000B0404040E1F700C00000AE98CF01B801C6
:100360000E943305FB012150310931F68FEFE81A65
:10037000F80A8091E6009091E700E816F9060CF47F
:10038000B5CF62C086E1E0EDF0E0DE0111960190AC
:100390000D928A95E1F70F2EF3E0CF2ED12CF02DA0
:1003A0007E0197E1E90EF11C0E945A00FE01319690
:1003B0008E01025F1F4F819182BBA99AA89AA7EC78
:1003C000B0E01197F1F700C00000A89887EC90E02A
:1003D0000197F1F700C000000E171F0761F780ECCE
:1003E0000E944900D8018D918D0182BBA99AA89ADB
:1003F000E7ECF0E03197F1F700C00000A89887EC37
:1004000090E00197F1F700C00000AE15BF0551F76D
:100410009FEFA2E5B7E09150A040B040E1F700C0E7
:10042000000081E00E944900EFEFF3EC29E0E15089
:10043000F0402040E1F700C0000041E0C41AD108BC
:1004400009F0B2CF0E945A0066960FB6F894DEBF4C
:100450000FBECDBFDF91CF911F910F91FF90EF9015
:10046000DF90CF9008952091E6003091E700203290
:1004700031053CF4220F331FF901EA51FF4F9183FC
:10048000808308958FEF8ABB17BA81BB83E484BB56
:100490000E945A00C0E0D0E001E010E00F2EFCE91D
:1004A000CF2EF0E0DF2EF02D0F2EF0E6EF2EF0E055
:1004B000FF2EF02D9D990E945301C630D10514F0F6
:1004C000C0E0D0E0C8010C2E02C0880F991F0A942A
:1004D000E2F78BBB21968BB3813009F085C086B3E0
:1004E000813099F4F60180810E94D300F701808168
:1004F00091810E943302FFEF23EC89E0F15020400C
:100500008040E1F700C00000D5CF86B3823099F477
:10051000F60185810E94D300F701828593850E94B0
:100520003302FFEF23EC89E0F15020408040E1F7F7
:1005300000C00000BFCF86B3843099F4F6018285F5
:100540000E94D300F701848995890E943302FFEF4E
:1005500023EC89E0F15020408040E1F700C000002A
:10056000A9CF86B3883099F4F60187850E94D3001D
:10057000F701868D978D0E943302FFEF23EC89E00F
:10058000F15020408040E1F700C0000093CF86B3D7
:10059000803199F4F60184890E94D300F70180A587
:1005A00091A50E943302FFEF23EC89E0F150204037
:1005B0008040E1F700C000007DCF86B3803209F0B3
:1005C00079CFF601818D0E94D300F70182A993A90A
:1005D0000E943302FFEF23EC89E0F150204080407D
:1005E000E1F700C0000066CF8BB3823009F085C010
:1005F00086B3813099F4F60181810E94D300F7011E
:10060000828193810E943302FFEF23EC89E0F15055
:1006100020408040E1F700C000004CCF86B382301C
:1006200099F4F60186810E94D300F70184859585AF
:100630000E943302FFEF23EC89E0F150204080401C
:10064000E1F700C0000036CF86B3843099F4F6019C
:1006500083850E94D300F701868997890E9433021F
:10066000FFEF23EC89E0F15020408040E1F700C02B
:10067000000020CF86B3883099F4F60180890E946B
:10068000D300F70180A191A10E943302FFEF23EC78
:1006900089E0F15020408040E1F700C000000ACF1F
:1006A00086B3803199F4F60185890E94D300F70161
:1006B00082A593A50E943302FFEF23EC89E0F1505D
:1006C00020408040E1F700C00000F4CE86B38032C5
:1006D00009F0F0CEF601828D0E94D300F70184A9C3
:1006E00095A90E943302FFEF23EC89E0F1502040EE
:1006F0008040E1F700C00000DDCE8BB3843009F00C
:1007000085C086B3813099F4F60182810E94D300BE
:10071000F701848195810E943302FFEF23EC89E089
:10072000F15020408040E1F700C00000C3CE86B306
:10073000823099F4F60187810E94D300F701868503
:1007400097850E943302FFEF23EC89E0F1502040AF
:100750008040E1F700C00000ADCE86B3843099F44C
:10076000F60184850E94D300F701808D918D0E944F
:100770003302FFEF23EC89E0F15020408040E1F7A5
:1007800000C0000097CE86B3883099F4F6018189C5
:100790000E94D300F70182A193A10E943302FFEFD0
:1007A00023EC89E0F15020408040E1F700C00000D8
:1007B00081CE86B3803199F4F60186890E94D300F8
:1007C000F70184A595A50E943302FFEF23EC89E091
:1007D000F15020408040E1F700C000006BCE86B3AE
:1007E000803209F067CEF601838D0E94D300F701B5
:1007F00086A997A90E943302FFEF23EC89E0F1500C
:1008000020408040E1F700C0000054CE8BB3883018
:1008100009F085C086B3813099F4F60183810E9486
:10082000D300F701868197810E943302FFEF23EC0A
:1008300089E0F15020408040E1F700C000003ACE4E
:1008400086B3823099F4F60180850E94D300F701C7
:10085000808991890E943302FFEF23EC89E0F150F7
:1008600020408040E1F700C0000024CE86B38430F1
:1008700099F4F60185850E94D300F701828D938D4E
:100880000E943302FFEF23EC89E0F15020408040CA
:10089000E1F700C000000ECE86B3883099F4F6016F
:1008A00082890E94D300F70184A195A10E9433029E
:1008B000FFEF23EC89E0F15020408040E1F700C0D9
:1008C0000000F8CD86B3803199F4F60187890E9443
:1008D000D300F70186A597A50E943302FFEF23EC12
:1008E00089E0F15020408040E1F700C00000E2CDF7
:1008F00086B3803209F0DECDF601848D0E94D300EC
:10090000F70180AD91AD0E943302FFEF23EC89E047
:10091000F15020408040E1F700C00000CBCD8BB308
:10092000803109F085C086B3813099F4F601848165
:100930000E94D300F701808591850E943302FFEF6A
:1009400023EC89E0F15020408040E1F700C0000036
:10095000B1CD86B3823099F4F60181850E94D3002F
:10096000F701828993890E943302FFEF23EC89E02B
:10097000F15020408040E1F700C000009BCD86B3DD
:10098000843099F4F60186850E94D300F701848DA6
:10099000958D0E943302FFEF23EC89E0F150204057
:1009A0008040E1F700C0000085CD86B3883099F41F
:1009B000F60183890E94D300F70186A197A10E94C6
:1009C0003302FFEF23EC89E0F15020408040E1F753
:1009D00000C000006FCD86B3803199F4F601808DA0
:1009E0000E94D300F70180A991A90E943302FFEF72
:1009F00023EC89E0F15020408040E1F700C0000086
:100A000059CD86B3803209F055CDF601858D0E940F
:100A1000D300F70182AD93AD0E943302FFEF23ECC8
:100A200089E0F15020408040E1F700C0000042CD55
:100A30008BB3803209F03ECD86B3803209F03ACDD7
:100A4000F601818D0E94D300F70182A993A90E942B
:100A50003302FFEF23EC89E0F15020408040E1F7C2
:100A600000C0000027CD97FB072E16F4009407D096
:100A700077FD09D00E94470507FC05D03EF490950C
:100A800081959F4F0895709561957F4F0895AA1B9A
:100A9000BB1B51E107C0AA1FBB1FA617B70710F069
:100AA000A61BB70B881F991F5A95A9F7809590959B
:0A0AB000BC01CD010895F894FFCFBA
:100ABA0034085804BC0470000100BB047A005704CF
:100ACA000B00AD08D400610416000C00DE00C5045A
:100ADA004A0879006F000200D3003F08DD00400891
:100AEA00A4086204000000000000000041424344E0
:100AFA0045464748494A4B4C4D4E4F505152535424
:100B0A0055565758595A00000000594F5520455814
:100B1A0043454544203332436861726163746572A8
:100B2A004572726F723A4C41434B206F664368615B
:060B3A0072616374657234
:00000001FF
